:03000000020C15DA
:0C0C1500787FE4F6D8FD758143020C5C8A
:100DCB00043C41300000043200000000042E41308E
:0A0DDB00000002380028023600284C
:100D5300E4FDFCC3ED9FEC9E5015E4FBFA0BBB00D6
:0F0D6300010ABA04F8BBFBF50DBD00010C80E4DA
:010D7200225E
:100DAF00A2A5E433751600F517A2A6E43375180053
:0C0DBF00F519A2A7E433751A00F51B22F9
:100ACB00E51745166012E5194518600CE51B451A2C
:100ADB007006F52675270222E51745166012E519F3
:100AEB004518700CE51B451A7006F5267527012273
:100AFB00E5174516600FE51945187009E51B451AF2
:100B0B006003E4806BE51745167010E51945187006
:100B1B000AE51B451A600474FF8055E517451670EE
:100B2B0013E5194518600DE51B451A60077526FF7F
:100B3B007527FE22E51745166024E5194518601E3A
:100B4B00E51B451A6018E51DB4FE0CE51CB4FF0748
:100B5B007526FF7527FD2275260075270322E517DD
:100B6B0045167010E5194518700AE51B451A7004F7
:050B7B00F526F527221C
:100B8000AC26AD27E4120A03AB3FAA3EA93DA83C20
:100B90001208F88F158E148D138C12E527253BF55E
:100BA0003BE526353AF53AFCAD3BE4120A03AB359A
:100BB000AA34A933A8321208F88F0F8E0E8D0D8C2F
:100BC0000CC3E527951DF52DE526951CF52CFCADF0
:100BD0002DE4120A03AB31AA30A92FA82E1208F86F
:100BE0008F0B8E0A8D098C08AF0FAE0EAD0DAC0CBD
:100BF000AB15AA14A913A812120807AB0BAA0AA9CD
:100C000009A8081208078F2B8E2A8D298C28852683
:050C10001C85271D22D8
:100CA100AC38AD39E4120A03AB2BAA2AA929A8282A
:100CB100120807120A3C8E248F25AC36AD37E41298
:100CC1000A03AB2BAA2AA929A828120803120A3C55
:100CD1008E228F23D3E52594FFE524940040067EE0
:100CE100007FFF8004AE24AF258E248F25D3E5231A
:100CF10094FFE522940040067E007FFF8004AE222F
:100D0100AF238E228F23120D73AF25AE24120D91C6
:090D1100D293C292D295C2942241
:100D73007510FE7511FFC374FF9FF52174FF9EF577
:0E0D830020E5112521F541E5103520F540222F
:100D91007510FE7511FFC374FF9FF52174FF9EF559
:0E0DA10020E5112521F541E5103520F5402211
:100D1A00758901D3E5239401E52294004009E5424F
:100D2A00F58C85438A8007E51EF58C851F8AD3E5F5
:100D3A00259401E52494004008E542F58C85438A10
:090D4A0022E51EF58C851F8A22AA
:100DE600120DAF120ACB120B80120CA17F647E008B
:050DF600120D5380EB1B
:10080000020AA8E86480F8E933E83360110460F074
:10081000ED33EC337009E8FCE9FDEAFEEBFF22045E
:1008200060DED3EB9FEA9EE99DE8C2E78CF0C2F759
:1008300095F0400CE8CCF8E9CDF9EACEFAEBCFFB25
:10084000120A7385D0F05804700320D5B3E8047001
:10085000075002B2D5020AB292D5EC0460F7E4CC9C
:10086000C0E0C398F8603B94186008400DD0E0FBEE
:10087000020A8AE4FBFAC9FC8028E830E406E4C9ED
:10088000FBE4CAFCE830E305E4C9CACBFCE8540742
:100890006010F8C3E913F9EA13FAEB13FBEC13FC4D
:1008A000D8F130F52FC3E49CFCEF9BFFEE9AFEEDF0
:1008B00099FDD0E0FBEF4E4D4C701222DB03020A93
:1008C000AFEC2CFCEF33FFEE33FEED33FDED30E704
:1008D000EB020A8AEF2BFFEE3AFEED39FDD0E0FB8A
:1008E00050130BBB0003020AB2ED13FDEE13FEEF33
:0808F00013FFEC13FC020A8A5D
:1008F800EC4D6011E8497017ED33EC3304600DE4FA
:10090800FCFFFEFD22E933E8330470F8020AA8125E
:100918000A7358046009E4CC24815006285009025F
:100928000AB2284003020AAFC0E0EB4A7044B9801B
:1009380006D0E0FB020A9EEF4E701CBD8008EBFF5C
:10094800EAFEE9FD80EBE98DF0A4FEE5F00209E19D
:10095800E9CDF9EAFEEBFFEF89F0A4FCE5F0CE89DA
:10096800F0A42EFFE435F0CD89F0A42DFEE435F097
:100978008067EF4E7005BD80D780C3EF8BF0A4ACC5
:10098800F0EE8BF0A42CFCE435F0F8EF8AF0A42C00
:10099800E5F038FCE433CB8DF0A42CFCE5F03BF813
:1009A800EE8AF0A42CFCE5F038F8E433CF89F0A403
:1009B8002CFCE5F038CF3400CE89F0A42FFFE5F009
:1009C8003EFEE433C98DF0A42EFEE5F039CD8AF061
:1009D800A42FFFE5F03EFEE43DFD33D0E0FB5007D9
:1009E8000BBB000F020AB2EC2CFCEF33FFEE33FE18
:0609F800ED33FD020A8A46
:1009FE0075F020800E75F010800575F0087D007E74
:100A0E00007F003392D530D503120ABDEC3340106F
:100A1E00EF33FFEE33FEED33FDEC33FCD5F0ED227C
:0E0A2E00E5F0247EA2D513CC92E7CDCEFF22B8
:100A3C00EDD2E7CD33EC3392D524814006E4FFFEB2
:100A4C00FDFC22FCE4CFCECDCC24E0501174FF8011
:100A5C00EDC3CC13CCCD13CDCE13CECF13CF0470AE
:070A6C00F030D5DE020ABDE7
:100A7300E9D2E7C933E833F892D5EDD2E7CD33ECC9
:070A830033FC5002B2D52242
:100A8A00EC30E7100FBF000C0EBE00080DBD0004CD
:100A9A000BEB6014A2D5EB13FCED92E7FD2274FF79
:100AAA00FCFDFEFF22E480F8A2D574FF13FC7D80D2
:030ABA00E480EFE6
:100C2100020DE6E493A3F8E493A34003F68001F2F6
:100C310008DFF48029E493A3F85407240CC8C333D4
:100C4100C4540F4420C8834004F456800146F6DFA3
:100C5100E4800B0102040810204080900DCBE47E5B
:100C6100019360BCA3FF543F30E509541FFEE49398
:100C7100A360010ECF54C025E060A840B8E493A35F
:100C8100FAE493A3F8E493A3C8C582C8CAC583CA8A
:100C9100F0A3C8C582C8CAC583CADFE9DEE780BE42
:010DE500000D
:0E0ABD00C3E49FFFE49EFEE49DFDE49CFC224A
:00000001FF
