:03000000020C13DC
:0C0C1300787FE4F6D8FD758139020C5A98
:100D5E00043641300000042C00000000042841300D
:0A0D6E0000000232002802300028C5
:100D2200E4FDFCC3ED9FEC9E5015E4FBFA0BBB0007
:0F0D3200010ABA04F8BBFBF50DBD00010C80E40B
:010D4100228F
:100D4200A2A5E433751400F515A2A6E433751600C6
:0C0D5200F517A2A7E433751800F519226C
:100ACB00E51545146012E5174516600CE519451838
:100ADB007006F52075210222E51545146012E51705
:100AEB004516700CE51945187006F5207521012285
:100AFB00E5154514600FE51745167009E5194518FE
:100B0B006003E4806BE51545147010E5174516700E
:100B1B000AE5194518600474FF8055E515451470F6
:100B2B0013E5174516600DE519451860077520FF8D
:100B3B007521FE22E51545146024E5174516601E48
:100B4B00E51945186018E51BB4FE0CE51AB4FF0750
:100B5B007520FF7521FD2275200075210322E515F7
:100B6B0045147010E5174516700AE5194518700401
:050B7B00F520F5212228
:100B8000AC20AD21EC120A03AB39AA38A937A8363C
:100B90001208F88F138E128D118C10E5212535F572
:100BA00035E5203534F534FCAD35120A03AB2FAAF8
:100BB0002EA92DA82C1208F88F0F8E0E8D0D8C0CDF
:100BC000C3E521951BF527E520951AF526FCAD27F1
:100BD000120A03AB2BAA2AA929A8281208F88F0BFE
:100BE0008E0A8D098C08AF0FAE0EAD0DAC0CAB1399
:100BF000AA12A911A810120807AB0BAA0AA909A8E2
:100C0000081208078F258E248D238C2285201A85B3
:030C1000211B2283
:100C9F00AC32AD33EC120A03AB25AA24A923A82248
:100CAF00120807120A3C8E1E8F1FAC30AD31EC12AA
:100CBF000A03AB25AA24A923A822120803120A3C6F
:100CCF008E1C8F1DD3E51F94FFE51E64809480401A
:100CDF00067E007FFF8004AE1EAF1F8E1E8F1FD3B8
:100CEF00E51D94FFE51C6480948040067E007FFF25
:100CFF008004AE1CAF1D8E1C8F1DE51E451F24FFEB
:100D0F0092B1E51C451D24FF92B2D293C292D295A7
:030D1F00C2942259
:100D7900120D42120ACB120B80120C9F7F647E0067
:050D8900120D2280EBB9
:10080000020AA8E86480F8E933E83360110460F074
:10081000ED33EC337009E8FCE9FDEAFEEBFF22045E
:1008200060DED3EB9FEA9EE99DE8C2E78CF0C2F759
:1008300095F0400CE8CCF8E9CDF9EACEFAEBCFFB25
:10084000120A7385D0F05804700320D5B3E8047001
:10085000075002B2D5020AB292D5EC0460F7E4CC9C
:10086000C0E0C398F8603B94186008400DD0E0FBEE
:10087000020A8AE4FBFAC9FC8028E830E406E4C9ED
:10088000FBE4CAFCE830E305E4C9CACBFCE8540742
:100890006010F8C3E913F9EA13FAEB13FBEC13FC4D
:1008A000D8F130F52FC3E49CFCEF9BFFEE9AFEEDF0
:1008B00099FDD0E0FBEF4E4D4C701222DB03020A93
:1008C000AFEC2CFCEF33FFEE33FEED33FDED30E704
:1008D000EB020A8AEF2BFFEE3AFEED39FDD0E0FB8A
:1008E00050130BBB0003020AB2ED13FDEE13FEEF33
:0808F00013FFEC13FC020A8A5D
:1008F800EC4D6011E8497017ED33EC3304600DE4FA
:10090800FCFFFEFD22E933E8330470F8020AA8125E
:100918000A7358046009E4CC24815006285009025F
:100928000AB2284003020AAFC0E0EB4A7044B9801B
:1009380006D0E0FB020A9EEF4E701CBD8008EBFF5C
:10094800EAFEE9FD80EBE98DF0A4FEE5F00209E19D
:10095800E9CDF9EAFEEBFFEF89F0A4FCE5F0CE89DA
:10096800F0A42EFFE435F0CD89F0A42DFEE435F097
:100978008067EF4E7005BD80D780C3EF8BF0A4ACC5
:10098800F0EE8BF0A42CFCE435F0F8EF8AF0A42C00
:10099800E5F038FCE433CB8DF0A42CFCE5F03BF813
:1009A800EE8AF0A42CFCE5F038F8E433CF89F0A403
:1009B8002CFCE5F038CF3400CE89F0A42FFFE5F009
:1009C8003EFEE433C98DF0A42EFEE5F039CD8AF061
:1009D800A42FFFE5F03EFEE43DFD33D0E0FB5007D9
:1009E8000BBB000F020AB2EC2CFCEF33FFEE33FE18
:0609F800ED33FD020A8A46
:1009FE0075F020800E75F010800575F0087D007E74
:100A0E00007F003392D530D503120ABDEC3340106F
:100A1E00EF33FFEE33FEED33FDEC33FCD5F0ED227C
:0E0A2E00E5F0247EA2D513CC92E7CDCEFF22B8
:100A3C00EDD2E7CD33EC3392D524814006E4FFFEB2
:100A4C00FDFC22FCE4CFCECDCC24E0501174FF8011
:100A5C00EDC3CC13CCCD13CDCE13CECF13CF0470AE
:070A6C00F030D5DE020ABDE7
:100A7300E9D2E7C933E833F892D5EDD2E7CD33ECC9
:070A830033FC5002B2D52242
:100A8A00EC30E7100FBF000C0EBE00080DBD0004CD
:100A9A000BEB6014A2D5EB13FCED92E7FD2274FF79
:100AAA00FCFDFEFF22E480F8A2D574FF13FC7D80D2
:030ABA00E480EFE6
:100C1F00020D79E493A3F8E493A34003F68001F265
:100C2F0008DFF48029E493A3F85407240CC8C333D6
:100C3F00C4540F4420C8834004F456800146F6DFA5
:100C4F00E4800B0102040810204080900D5EE47ECA
:100C5F00019360BCA3FF543F30E509541FFEE4939A
:100C6F00A360010ECF54C025E060A840B8E493A361
:100C7F00FAE493A3F8E493A3C8C582C8CAC583CA8C
:100C8F00F0A3C8C582C8CAC583CADFE9DEE780BE44
:010D7800007A
:0E0ABD00C3E49FFFE49EFEE49DFDE49CFC224A
:00000001FF
